S00C00004D4355312E7372656302
S11300000C942A000C943F000C943F000C943F0085
S11300100C943F000C943F000C943F000C943F0060
S11300200C943F000C943F000C943F000C943F0050
S11300300C943F000C943F000C943F000C943F0040
S11300400C943F000C943F000C943F000C943F0030
S11300500C943F0011241FBECFE5D8E0DEBFCDBF16
S113006011E0A0E6B0E0E4ECF3E002C005900D92EC
S1130070A23EB107D9F70E9441000C94E0010C9410
S11300800000CF93DF9300D0CDB7DEB78DE28A8333
S113009040E060EB81E00E94310141E060E481E0F6
S11300A00E94310141E061E083E00E94310140E0BF
S11300B062E083E00E94310187E690E00E94C00183
S11300C023E040E060E280E10E949A0166E180E67C
S11300D090E00E94CE012FEF80E792E02150804013
S11300E09040E1F700C000006EE386E790E00E94D4
S11300F0CE012FEF80E792E0215080409040E1F75D
S113010000C0000063E184EB90E00E94CE012FEF79
S113011080E792E0215080409040E1F700C0000069
S113012064E188EC90E00E94CE012FEF80E792E03A
S1130130215080409040E1F700C0000066E18DED61
S113014090E00E94CE012FEF80E792E021508040A2
S11301509040E1F700C0000067E184EF90E00E9466
S1130160CE012FEF80E792E0215080409040E1F7EC
S113017000C0000061E18CE091E00E94CE012FEF0D
S113018080E792E0215080409040E1F700C00000F9
S113019062E18DE191E00E94CE018DE28A83CE017D
S11301A002960E94C8018A81813361F464E18FE27E
S11301B091E00E94CE01BE016F5F7F4F80E10E94FB
S11301C0B00192CF823361F465E183E491E00E944F
S11301D0CE01BE016F5F7F4F80E20E94B00184CFE9
S11301E0833361F467E188E591E00E94CE01BE01AA
S11301F06F5F7F4F80E30E94B00176CF843361F458
S113020068E18FE691E00E94CE01BE016F5F7F4FEF
S113021080E40E94B00168CF853361F464E287E82A
S113022091E00E94CE01BE016F5F7F4F80E50E9486
S1130230B0015ACF863361F465E28BEA91E00E9403
S1130240CE01BE016F5F7F4F80E60E94B0014CCFAC
S11302508D3209F4A2CF60E180ED91E00E94CE01DD
S113026043CF8130F9F030F08230A1F1833009F4CA
S113027049C00895413041F018F0423051F00895DA
S11302808AB3682B6ABB08958AB3609568236ABBF6
S113029008958AB3962F909589238ABB8BB3682BD4
S11302A06BBB0895413041F018F0423051F008958D
S11302B087B3682B67BB089587B36095682367BBD2
S11302C0089587B3962F9095892387BB88B3682BAD
S11302D068BB0895413041F018F0423051F0089560
S11302E084B3682B64BB089584B36095682364BBAE
S11302F0089584B3962F9095892384BB85B3682B86
S113030065BB0895413041F018F0423051F0089532
S113031081B3682B61BB089581B36095682361BB89
S1130320089581B3962F9095892381BB82B3682B5E
S113033062BB08951DB820FD04C09EB191609EB9B2
S113034003C09EB19E7F9EB950E0440F551F440FD9
S1130350551F682B462B2695242B20642DB9089510
S11303608FB980E005C08F5F95E09A95F1F70000A2
S1130370779902C08233B8F38FB1FB01808308956B
S11303801BB828E12AB926E820BD89B990BD089593
S11303905F9B03C02CB1FC0120830895FC010BC0BA
S11303A05D9B08C080818CB95E9BFECF2BB120641D
S11303B02BB93196692F9FEF960F6111F1CF0895F4
S10703C0F894FFCFDB
S11303C457454C434F4D4520544F20534D415254AF
S11303D4484F4D450D00706C656173652063686F0B
S11303E46F7365206265747765656E203A2028779B
S11303F472697465206F6E6C7920746865206E75FB
S11304046D62657220696E20746865206C6566741B
S113041429200D003129205455524E204143204FA8
S11304244E204F4E4C590D003229205455524E2023
S11304344143204F4646204F4E4C590D003329204A
S11304445455524E204C49474854204F4E204F4E49
S11304544C590D003429205455524E204C494748D8
S113046454204F4646204F4E4C590D0035292054F4
S113047455524E204F4E20424F54480D00362920E9
S11304845455524E204F464620424F54480D000DB9
S11304940D4143206973207475726E6564206F6E18
S11304A40D0D000D0D4143206973207475726E6542
S11304B464206F66660D0D000D0D6C696768742009
S11304C46973207475726E6564206F6E0D0D000D72
S11304D40D6C69676874206973207475726E656441
S11304E4206F66660D0D000D0D424F5448204C4993
S11304F447485420414E442041432041524520540E
S113050455524E4544204F4E0D0D000D0D424F548F
S113051448204C4947485420414E442041432041FB
S11305245245205455524E4544204F46460D0D0025
S11305340D0D57524F4E4720454E544552590D0DFB
S10505440000B1
S9030000FC
